S01100004F70647261636874332E73726563AB
S113000045C0000053C0000051C000004FC00000B4
S11300104DC000004BC0000049C0000047C00000B4
S113002045C0000043C0000053C000003FC00000B2
S11300303DC000003BC0000039C0000037C00000D4
S113004035C0000033C0000031C000002FC00000E4
S11300502DC000002BC0000029C0000027C00000F4
S113006025C0000023C0000021C000001FC0000004
S11300701DC000001BC0000019C0000017C0000014
S113008015C0000013C0000011C0000011241FBEE1
S1130090CFEFD0E1DEBFCDBF21E0A0E0B1E001C0F1
S11300A01D92A230B207E1F702D06FC0A9CF8FEF43
S11300B087BB84BB81BB85E084BD87B7806487BF71
S11300C08FB780688FBF8BE085BD789415BAFFCF5A
S11300D01F920F920FB60F9211242F933F935F93A9
S11300E06F937F938F939F93AF93BF9385E084BD6A
S11300F08091000190910101019668E270E01ED0A8
S1130100282F392F80930001909301012115310587
S113011019F480E882BB04C02F30310509F412BA07
S1130120BF91AF919F918F917F916F915F913F911B
S11301302F910F900FBE0F901F90189597FB072ECD
S113014016F4009406D077FD08D00BD007FC05D038
S11301503EF4909581959F4F0895709561957F4FDA
S11301600895AA1BBB1B51E107C0AA1FBB1FA617FA
S1130170B70710F0A61BB70B881F991F5A95A9F74C
S111018080959095BC01CD010895F894FFCFB1
S9030000FC
