S01200004F7064726163687442322E7372656369
S113000045C000004CC0000070C0000047C00000A4
S113001045C0000043C0000041C000003FC00000D4
S11300203DC000003BC0000039C0000037C00000E4
S113003035C0000033C0000031C000002FC00000F4
S11300402DC000002BC0000029C0000027C0000004
S113005025C0000023C0000021C000001FC0000014
S11300601DC000001BC0000019C0000017C0000024
S113007015C0000013C0000011C000000FC0000034
S11300800DC000000BC0000009C0000011241FBEF9
S1130090CFEFD0E1DEBFCDBF4ED080C0B1CF1F9235
S11300A00F920FB60F9211245F936F937F938F93E8
S11300B09F93AF93BF9383B1811103C081E083B950
S11300C008C083B190E0880F991F6FEF70E03FD0B4
S11300D083B9BF91AF919F918F917F916F915F9100
S11300E00F900FBE0F901F9018951F920F920FB68E
S11300F00F9211248F9383B1811103C081E083B9DE
S113010003C083B1869583B98F910F900FBE0F9072
S11301101F901895181619066CF420E030E0EFECE7
S1130120F7E03197F1F700C000002F5F3F4F8217CF
S11301309307A9F708958FEF82B911BA8FE38093DB
S11301406A0089BF78948AE090E0E4DFFCCF97FBF3
S1130150072E16F4009406D077FD08D00BD007FCC8
S113016005D03EF4909581959F4F089570956195C3
S11301707F4F0895AA1BBB1B51E107C0AA1FBB1FD9
S1130180A617B70710F0A61BB70B881F991F5A951F
S1130190A9F780959095BC01CD010895F894FFCFFF
S9030000FC
