S01200004F7064726163687442332E7372656368
S113000045C000004BC0000049C0000047C00000CC
S113001045C0000043C0000041C000003FC00000D4
S11300203DC000003BC0000039C0000037C00000E4
S113003035C0000033C0000031C000002FC00000F4
S11300402DC000002BC0000029C0000027C0000004
S113005025C0000023C0000021C000001FC0000014
S11300601DC000001BC0000019C0000017C0000024
S113007015C0000013C0000011C000000FC0000034
S11300800DC000000BC0000009C0000011241FBEF9
S1130090CFEFD0E1DEBFCDBF71D080C0B1CF181695
S11300A019066CF420E030E0EFECF7E03197F1F75B
S11300B000C000002F5F3F4F82179307A9F70895F0
S11300C08F3091051CF081E782BB0895009719F4E5
S11300D08FE382BB08958130910519F486E082BBD9
S11300E008958230910519F48BE582BB089583301D
S11300F0910519F48FE482BB08958430910519F4B5
S113010086E682BB08958530910519F48DE682BB9D
S113011008958630910519F48DE782BB08958730E0
S1130120910519F487E082BB08958830910519F48C
S11301308FE782BB08958930910519F48FE682BB5D
S113014008958A30910519F487E782BB08958B30AE
S1130150910519F48CE782BB08958C30910519F44C
S113016089E382BB08958D30910519F48EE582BB35
S113017008950E9711F489E782BB08958FEF81BB30
S11301801FEF12BBC0E0D0E0CE019ADF84E690E01E
S113019086DF2196C031D105B9F7F3CFF894FFCFAC
S9030000FC
