S01300004F706472616368744237412E7372656322
S113000045C000004BC0000049C0000047C00000CC
S113001045C0000043C0000041C000003FC00000D4
S11300203DC000003BC0000039C0000037C00000E4
S113003035C0000033C0000031C000002FC00000F4
S11300402DC000002BC0000029C0000027C0000004
S113005025C0000023C0000021C000001FC0000014
S11300601DC000001BC0000019C0000017C0000024
S113007015C0000013C0000011C000000FC0000034
S11300800DC000000BC0000009C0000011241FBEF9
S1130090CFEFD0E1DEBFCDBF9ED0AAC0B1CF989B39
S11300A005C081E083B980E090E00895999B05C084
S11300B082E083B981E090E008959A9B05C084E0D2
S11300C083B982E090E008959B9B05C088E083B9E2
S11300D083E090E008959C9B05C080E183B984E0AF
S11300E090E008959D9B05C080E283B985E090E08F
S11300F008959E9B05C080E483B986E090E008954E
S11301009F9B05C080E883B987E090E008958FEF56
S11301109FEF089581E082BBC2DF8530910529F00D
S1130120069731F08AE890E0089587EB90E008950F
S113013086EA90E0089581E882BBB1DF079719F061
S11301408BE990E008958AE890E0089585E082BB09
S1130150A6DF8730910529F0059731F086EA90E013
S113016008958AE890E0089587EB90E0089585E18A
S113017082BB95DF8530910529F0069731F087EB36
S113018090E0089588EC90E0089586EA90E0089560
S113019085E582BB84DF8730910531F005970297AE
S11301A030F088EC90E008958AE890E008958BE9B7
S11301B090E00895181619066CF420E030E0EFEC96
S11301C0F7E03197F1F700C000002F5F3F4F82172F
S11301D09307A9F708958FEF81BB17BA82B9CAE8CC
S11301E0D0E0FE010995EC018AEF90E0E3DFF9CF5E
S10701F0F894FFCFAD
S9030114E7
