:1000000045C000004BC0000049C0000047C00000D0
:1000100045C0000043C0000041C000003FC00000D8
:100020003DC000003BC0000039C0000037C00000E8
:1000300035C0000033C0000031C000002FC00000F8
:100040002DC000002BC0000029C0000027C0000008
:1000500025C0000023C0000021C000001FC0000018
:100060001DC000001BC0000019C0000017C0000028
:1000700015C0000013C0000011C000000FC0000038
:100080000DC000000BC0000009C0000011241FBEFD
:10009000CFEFD0E1DEBFCDBF41D07BC0B1CF009765
:1000A00029F48EEF81BB84E082BB089581309105F5
:1000B00029F48EEF81BB82E082BB089582309105E6
:1000C00029F48BEF81BB82E082BB089583309105D8
:1000D00029F48BEF81BB81E082BB089584309105C8
:1000E00029F48DEF81BB81E082BB0895059721F44F
:1000F0008DEF81BB84E082BB0895181619066CF45D
:1001000020E030E0EFECF7E03197F1F700C00000BD
:100110002F5F3F4F82179307A9F7089511BAC0E0E8
:10012000D0E006E010E0CE01BADF84EF91E0E5DF39
:1001300012BA84EF91E0E1DFCE010196B80102D05E
:10014000EC01F1CF97FB072E16F4009406D077FD53
:1001500008D00BD007FC05D03EF4909581959F4FB9
:100160000895709561957F4F0895AA1BBB1B51E1BF
:1001700007C0AA1FBB1FA617B70710F0A61BB70B17
:10018000881F991F5A95A9F780959095BC01CD01BC
:060190000895F894FFCF72
:00000001FF
