S01100004F70647261636874312E73726563AD
S113000045C0000058C0000056C0000054C00000A5
S113001052C0000050C000004EC000004CC00000A0
S11300204AC0000048C0000046C0000044C00000B0
S113003042C0000040C000003EC000003CC00000C0
S11300403AC0000038C0000036C0000034C00000D0
S113005032C0000030C000002EC000002CC00000E0
S11300602AC0000028C0000026C0000024C00000F0
S113007022C0000020C000001EC000001CC0000000
S11300801AC0000018C0000016C0000011241FBED2
S1130090CFEFD0E1DEBFCDBF11E0A0E0B1E0E6E3F9
S11300A0F2E000E00BBF02C007900D92A632B10748
S11300B0D9F79DD0BEC0A4CF982F907F95BB95B3A0
S11300C09C6095BBEFECF7E03197F1F700C00000BE
S11300D094E095BBF0E18F9FC001112485BB85B3EB
S11300E08C6085BB8FEC97E00197F1F700C00000AE
S11300F015BA08950F931F93CF93DF93EFECF7E0B6
S11301003197F1F700C00000FC0101900020E9F7ED
S11301103197E81BF90B1E161F0654F4EC018C01F1
S11301200E0F1F1F899190E0C7DFC017D107D1F7C9
S1130130DF91CF911F910F910895982F907F95BBD8
S1130140AB9AEFECF7E03197F1F700C0000094E0D0
S113015095BBF0E18F9FC001112485BBAB9A8FEC56
S113016097E00197F1F700C0000015BA089582E006
S1130170E4DF88E2E2DF8CE0E0DF86E0DEDF80E8D7
S1130180DCCF08950F931F93CF93DF93EFECF7E049
S11301903197F1F700C00000181619064CF48C01D1
S11301A0C0E0D0E088E1C9DF21960C171D07D1F724
S11301B0DF91CF911F910F9108958FEC97E00197F4
S11301C0F1F700C0000081E0B8CF089518161906B1
S11301D06CF420E030E0EFECF7E03197F1F700C089
S11301E000002F5F3F4F82179307A9F708958FEF01
S11301F081BB84BB15BABBDFE0DF80E091E07ADF2E
S1130200E0E0F1E001900020E9F731978F01005020
S1130210114010161106ECF7C0E0D0E081E090E048
S1130220B1DF8AEF90E0D2DF21960C171D07B1F7FA
S1090230F0CFF894FFCFAB
S11302364461727468207661646572206973206D06
S113024679206461646479202C2044616464792093
S10902567661646572008C
S9030000FC
