:1000000045C000004BC0000049C0000047C00000D0
:1000100045C0000043C0000041C000003FC00000D8
:100020003DC000003BC0000039C0000037C00000E8
:1000300035C0000033C0000031C000002FC00000F8
:100040002DC000002BC0000029C0000027C0000008
:1000500025C0000023C0000021C000001FC0000018
:100060001DC000001BC0000019C0000017C0000028
:1000700015C0000013C0000011C000000FC0000038
:100080000DC000000BC0000009C0000011241FBEFD
:10009000CFEFD0E1DEBFCDBF9BD0D8C0B1CF181617
:1000A00019066CF420E030E0E9EFF0E03197F1F769
:1000B00000C000002F5F3F4F82179307A9F70895F4
:1000C0008FEF87BBBB98C09A82E58DB908958FB931
:1000D000779BFECF089598B321E030E002C0220F55
:1000E000331F8A95E2F72095292328BB089598B3FA
:1000F00021E030E002C0220F331F8A95E2F7292B5E
:1001000028BB089580E0E7DF89E0E1DF8FEFDFDFE4
:1001100080E0EDDF80E0DFDF8AE0D9DF81E0D7DF5C
:1001200080E0E5DF80E0D7DF8BE0D1DF83E0CFDF69
:1001300080E0DDDF80E0CFDF8CE0C9DF81E0C7DF7A
:1001400080E0D5CF0895CF93DF93D82FC62F80E0DE
:10015000C2DF8D2FBCDF8C2FBADF80E0C8DFDF91DC
:10016000CF9108950F931F93CF93DF938C01992321
:100170003CF060E177E243D068EE73E040D001C02C
:100180006AE084E0E0DFE801DD2324F4CC27DD270A
:10019000C01BD10BCE0168EE73E031D004E610E055
:1001A000B8012DD083E0CFDFCE01B80128D00AE01E
:1001B00010E0B80124D082E0C6DFCE01B8011FD024
:1001C000682F81E0C0DFDF91CF911F910F910895DB
:1001D000CF93DF9381E087BB73DF94DFC9E1DCEF6E
:1001E000CE01C0DF84E690E05ADF2196C93E83E06D
:1001F000D807B1F780E090E0DF91CF91089597FBA9
:10020000072E16F4009406D077FD08D00BD007FC1B
:1002100005D03EF4909581959F4F08957095619516
:100220007F4F0895AA1BBB1B51E107C0AA1FBB1F2C
:10023000A617B70710F0A61BB70B881F991F5A9572
:10024000A9F780959095BC01CD010895F894FFCF52
:00000001FF
