S01100004F70647261636874322E73726563AC
S113000045C0000060C000005EC000005CC000008D
S11300105AC0000058C0000056C0000054C0000080
S113002052C0000050C0000020C100004CC00000BD
S11300304AC0000048C0000046C0000044C00000A0
S113004042C0000040C000003EC000003CC00000B0
S11300503AC0000038C0000036C0000034C00000C0
S113006032C0000030C000002EC000002CC00000D0
S11300702AC0000028C0000026C0000024C00000E0
S113008022C0000020C000001EC0000011241FBEBA
S1130090CFEFD0E1DEBFCDBF11E0A0E0B1E0E2EDF3
S11300A0F2E000E00BBF02C007900D92A631B10749
S11300B0D9F721E0A6E1B1E001C01D92A831B20751
S11300C0E1F79DD004C19CCF982F907F95BB95B349
S11300D09C6095BBEFECF7E03197F1F700C00000AE
S11300E094E095BBF0E18F9FC001112485BB85B3DB
S11300F08C6085BB8FEC97E00197F1F700C000009E
S113010015BA08950F931F93CF93DF93EFECF7E0A5
S11301103197F1F700C00000FC0101900020E9F7DD
S11301203197E81BF90B1E161F0654F4EC018C01E1
S11301300E0F1F1F899190E0C7DFC017D107D1F7B9
S1130140DF91CF911F910F910895982F907F95BBC8
S1130150AB9AEFECF7E03197F1F700C0000094E0C0
S113016095BBF0E18F9FC001112485BBAB9A8FEC46
S113017097E00197F1F700C0000015BA089582E0F6
S1130180E4DF88E2E2DF8CE0E0DF86E0DEDF80E8C7
S1130190DCCF08950F931F93CF93DF93EFECF7E039
S11301A03197F1F700C00000181619064CF48C01C1
S11301B0C0E0D0E088E1C9DF21960C171D07D1F714
S11301C0DF91CF911F910F9108958FEC97E00197E4
S11301D0F1F700C0000081E0B8CF089518161906A1
S11301E06CF420E030E0EFECF7E03197F1F700C079
S11301F000002F5F3F4F82179307A9F708958FEFF1
S113020087BB84BB11BA84BD87B7806487BF8FB7AF
S113021080688FBF87E085BD789415BAB0DFD5DFDD
S1130220E0E0F1E001900020E9F78F010050114077
S113023010161106ECF7C0E0D0E084B588BB81E06D
S113024090E0A8DF8AEF90E0C9DF2196C017D107BC
S1130250A4F3EECFBADF80E091E054DF8091160181
S113026090911701C09630CF08951F920F920FB648
S11302700F9211240BB60F922F933F934F935F93DA
S11302806F937F938F939F93AF93BF93EF93FF935A
S11302908091160190911701019690931701809314
S11302A01601D8DF8FEF84BDFF91EF91BF91AF911D
S11302B09F918F917F916F915F914F913F912F917A
S11302C00F900BBE0F900FBE0F901F901895F894CF
S10502D0FFCF5A
S11302D241616E74616C206B65657220676564723E
S10902E2756B743A200064
S9030000FC
