:1000000045C0000060C000008CC000005CC0000063
:100010005AC0000058C0000056C0000054C0000084
:1000200052C0000027C300004EC000004CC00000BA
:100030004AC0000048C0000046C0000044C00000A4
:1000400042C0000040C000003EC000003CC00000B4
:100050003AC0000038C0000036C0000034C00000C4
:1000600032C0000030C000002EC000002CC00000D4
:100070002AC0000028C0000026C0000024C00000E4
:1000800022C0000020C000001EC0000011241FBEBE
:10009000CFEFD0E1DEBFCDBF11E0A0E0B1E0E8EAF4
:1000A000F0E100E00BBF02C007900D92A036B1074F
:1000B000D9F721E0A0E6B1E001C01D92A637B20752
:1000C000E1F77CD2EFC79CCF80E687B986EE86B990
:1000D000089565B170E080E090E0B3D320E030E0B7
:1000E0004FE753E415D320E030E048E452E437D43E
:1000F00077D3CB0108958CE080936A0082E089BFBA
:1001000008958091600190916101009749F084E623
:1001100090E043D2109261011092600181E090E082
:1001200008951F920F920FB60F9211248F939F93F1
:1001300081E090E090936101809360019F918F91A5
:100140000F900FBE0F901F901895982F907F95BB22
:1001500095B39C6095BBEFECF7E03197F1F700C0E9
:10016000000094E095BBF0E18F9FC001112485BB96
:1001700085B38C6085BB8FEC97E00197F1F700C0E9
:10018000000015BA08950F931F93CF93DF93EFEC00
:10019000F7E03197F1F700C00000FC01019000206A
:1001A000E9F73197E81BF90B1E161F0654F4EC0112
:1001B0008C010E0F1F1F899190E0C7DFC017D10778
:1001C000D1F7DF91CF911F910F910895DCCF089562
:1001D000982F907F95BBAB9AEFECF7E03197F1F752
:1001E00000C0000094E095BBF0E18F9FC001112496
:1001F00085BBAB9A8FEC97E00197F1F700C0000048
:1002000015BA089582E0E4DF88E2E2DF8CE0E0DF07
:1002100086E0DEDF80E8DCCF0895CF93DF93EC014A
:1002200080ECD6DFCE01AFDFDF91CF9108958FEC68
:1002300097E00197F1F700C0000081E0C9CF089571
:1002400048DF20916A0130916B018217930751F0CA
:1002500090936B0180936A0181E090E09093070195
:100260008093060108954DDF892B09F46BC08091BE
:100270006E0190916F01FC01EE0FFF1FEE59FE4FD2
:100280004081518120916A0130916B0142175307DF
:10029000E9F4019690936F0180936E012091020121
:1002A00030910301821793070CF446C081E090E07F
:1002B000909371018093700110926F0110926E0102
:1002C00010926D0110926C01D0D136C08091040162
:1002D000909105010197909305018093040110927C
:1002E0006F0110926E0199233CF582E090E09093AB
:1002F0007101809370018AE090E0909301018093F6
:10030000000140916C0150916D011416150674F4B2
:100310002AE030E080E090E0220F331F019684173E
:100320009507D1F730930101209300014F5F5F4F94
:1003300050936D0140936C0181E090E09093070130
:10034000809306010895DDDE892BA9F010927101DA
:100350001092700110926F0110926E0183E090E094
:10036000909305018093040181E090E09093070150
:100370008093060175C108950F931F93CF93DF9368
:10038000CDB7DEB7EA970FB6F894DEBF0FBECDBF8C
:1003900010920701109206014ADF89E0E0E2F1E0E5
:1003A000DE01119601900D928A95E1F781E1E9E273
:1003B000F1E0DE011A9601900D928A95E1F78091A5
:1003C0006E0190916F01009759F08130910559F0BD
:1003D0008230910559F0039761F08CE191E00BC0F8
:1003E00088E091E008C08DE091E005C082E191E0F5
:1003F00002C087E191E09F938F93CE0101969F9376
:100400008F938E01055E1F4F1F930F9370D3C8010A
:10041000DDDE809105018F93809104018F9380919F
:100420006B018F9380916A018F93CE010A969F93FF
:100430008F93005F1F4F1F930F9359D3C801EDDEB9
:10044000809170019091710101970FB6F894DEBF11
:100450000FBECDBF029730F481E090E0909307018A
:1004600080930601EA960FB6F894DEBF0FBECDBFAB
:10047000DF91CF911F910F91089510920701109273
:100480000601D5DE8AE391E0A1DE809170019091B2
:1004900071018D7F892B31F481E090E09093070109
:1004A0008093060108950F931F93CF93DF93CDB7E9
:1004B000DEB760970FB6F894DEBF0FBECDBF1092C7
:1004C000070110920601B3DE83E491E07FDEE09144
:1004D0000001F09101012CE330E0CF01B901A2D27B
:1004E0009F938F93CF0160E17EE09CD2462FE72F50
:1004F000B90198D27F936F93EF934F938BE491E080
:100500009F938F938E010F5F1F4F1F930F93EFD217
:10051000C80183DE0FB6F894DEBF0FBECDBF609674
:100520000FB6F894DEBF0FBECDBFDF91CF911F9104
:100530000F9108958091700190917101029761F57A
:1005400080910001909101010097D9F410927101FE
:100550001092700110926F0110926E0181E090E094
:1005600090930701809306018AE090E09093010147
:100570008093000183E090E0909305018093040153
:1005800008950197909301018093000181E090E02C
:1005900090930701809306010895181619066CF4CC
:1005A00020E030E0EFECF7E03197F1F700C0000019
:1005B0002F5F3F4F82179307A9F708958FEF87BBEF
:1005C00084BB11BA109261007FDD84E690E0E5DF24
:1005D00019DE84E690E0E1DF8EDD84E690E0DDDF89
:1005E0002AD078948091700190917101009751F414
:1005F00027DE39DE8091060190910701892BB9F041
:10060000BBDE15C08130910549F49DDE8091060165
:1006100090910701892B59F030DF09C0029739F416
:100620008091060190910701892B09F03CDF84E657
:1006300090E0B3DFD7CF8FB581608FBD8FB5886A6B
:100640008FBD8EB584608EBD85E190E09BBD8ABD77
:100650008DE783BD87B7806887BF8BE085BD089530
:1006600085E190E09BBD8ABD089582E090E09BBD4E
:100670008ABD08951F920F920FB60F9211240BB6E8
:100680000F922F933F934F935F936F937F938F932B
:100690009F93AF93BF93EF93FF93809172019091DB
:1006A0007301A0917401B0917501BC01CD016F5F20
:1006B0007F4F8F4F9F4F60937201709373018093B0
:1006C00074019093750128EE33E040E050E0BDD115
:1006D000672B682B692B49F42DDF10927201109261
:1006E00073011092740110927501FF91EF91BF9107
:1006F000AF919F918F917F916F915F914F913F91BA
:100700002F910F900BBE0F900FBE0F901F9018955A
:100710000CD0EBC0E3D040F0DAD030F021F45F3FF2
:1007200019F0CCC0511115C1CFC0F0D098F3992366
:10073000C9F35523B1F3951B550BBB27AA276217A5
:100740007307840738F09F5F5F4F220F331F441FEA
:10075000AA1FA9F333D00E2E3AF0E0E830D0915022
:100760005040E695001CCAF729D0FE2F27D0660F0F
:10077000771F881FBB1F261737074807AB07B0E84E
:1007800009F0BB0B802DBF01FF2793585F4F2AF064
:100790009E3F510568F092C0DCC05F3FECF3983E8D
:1007A000DCF3869577956795B795F7959F5FC9F7C1
:1007B000880F911D9695879597F90895E1E0660F4A
:1007C000771F881FBB1F621773078407BA0720F0C3
:1007D000621B730B840BBA0BEE1F88F7E09508952C
:1007E00004D06894B111B5C0089598D088F09F578F
:1007F00090F0B92F9927B751A0F0D1F0660F771F6D
:10080000881F991F1AF0BA95C9F712C0B13081F04C
:100810009FD0B1E008959CC0672F782F8827B85FDC
:1008200039F0B93FCCF3869577956795B395D9F7AD
:100830003EF490958095709561957F4F8F4F9F4FB7
:100840000895E89409C097FB3EF4909580957095C3
:1008500061957F4F8F4F9F4F9923A9F0F92F96E90C
:10086000BB279395F695879577956795B795F11181
:10087000F8CFFAF4BB0F11F460FF1BC06F5F7F4F1E
:100880008F4F9F4F16C0882311F096E911C0772330
:1008900021F09EE8872F762F05C0662371F096E839
:1008A000862F70E060E02AF09A95660F771F881F08
:1008B000DAF7880F9695879597F9089597F99F67C6
:1008C00080E870E060E008959FEF80EC08950024D8
:1008D0000A941616170618060906089500240A94A5
:1008E00012161306140605060895092E0394000C2B
:1008F00011F4882352F0BB0F40F4BF2B11F460FFBA
:1009000004C06F5F7F4F8F4F9F4F089557FD9058E2
:10091000440F551F59F05F3F71F04795880F97FBC3
:10092000991F61F09F3F79F087950895121613067D
:100930001406551FF2CF4695F1DF08C016161706AC
:100940001806991FF1CF86957105610508940895E1
:10095000E894BB2766277727CB0197F908950BD03A
:10096000C4CFB5DF28F0BADF18F0952309F0A6CF81
:10097000ABCF1124EECFCADFA0F3959FD1F3950F33
:1009800050E0551F629FF001729FBB27F00DB11D13
:10099000639FAA27F00DB11DAA1F649F6627B00DA3
:1009A000A11D661F829F2227B00DA11D621F739F8C
:1009B000B00DA11D621F839FA00D611D221F749F9A
:1009C0003327A00D611D231F849F600D211D822FE1
:1009D000762F6A2F11249F5750408AF0E1F0882328
:1009E0004AF0EE0FFF1FBB1F661F771F881F915035
:1009F0005040A9F79E3F510570F060CFAACF5F3FEE
:100A0000ECF3983EDCF3869577956795B795F79567
:100A1000E7959F5FC1F7FE2B880F911D96958795EF
:100A200097F9089597FB072E16F4009406D077FDEA
:100A300008D027D007FC05D03EF4909581959F4FB4
:100A40000895709561957F4F0895052E97FB16F4D4
:100A500000940FD057FD05D028D007FC02D046F4F3
:100A600008C050954095309521953F4F4F4F5F4FAF
:100A7000089590958095709561957F4F8F4F9F4F0A
:100A80000895AA1BBB1B51E107C0AA1FBB1FA617D5
:100A9000B70710F0A61BB70B881F991F5A95A9F727
:100AA00080959095BC01CD010895A1E21A2EAA1B54
:100AB000BB1BFD010DC0AA1FBB1FEE1FFF1FA2170E
:100AC000B307E407F50720F0A21BB30BE40BF50B0B
:100AD000661F771F881F991F1A9469F76095709594
:100AE000809590959B01AC01BD01CF0108950F93B6
:100AF0001F93CF93DF93CDB7DEB72E970FB6F89441
:100B0000DEBF0FBECDBF0D891E8986E08C831A83A0
:100B100009838FEF9FE79E838D83AE01475E5F4F12
:100B20006F89788DCE01019610D0EF81F885E00FA6
:100B3000F11F10822E960FB6F894DEBF0FBECDBF08
:100B4000DF91CF911F910F9108952F923F924F9275
:100B50005F926F927F928F929F92AF92BF92CF924D
:100B6000DF92EF92FF920F931F93CF93DF93CDB756
:100B7000DEB72B970FB6F894DEBF0FBECDBF6C016A
:100B80007B018A01FC0117821682838181FFBFC12C
:100B9000CE0101963C01F6019381F70193FD859109
:100BA00093FF81917F01882309F4ADC1853239F427
:100BB00093FD859193FF81917F01853221F4B601E8
:100BC00090E0D6D1E8CF912C212C312CFFE1F31508
:100BD000D8F08B3279F038F4803279F08332A1F496
:100BE000232D20611DC08D3261F0803369F4232DE7
:100BF000216016C0832D8260382EE32DE4603E2EE6
:100C00002AC0F32DF8601DC037FC2DC020ED280F41
:100C10002A3040F08E32B9F436FC75C1232D2064A1
:100C2000322E19C036FE06C08AE0989E200D11248F
:100C3000922E11C0EAE02E9E200D1124222EF32DBB
:100C4000F0623F2E08C08C3621F4832D8068382E48
:100C500002C0883641F4F70193FD859193FF81919D
:100C60007F018111B3CF982F9F7D9554933028F445
:100C70000C5F1F4F9FE399830DC0833631F083379C
:100C800071F0833509F055C020C0F8018081898357
:100C90000E5F1F4F88248394912C530112C02801AA
:100CA000F2E04F0E511CF801A080B18036FE03C067
:100CB000692D70E002C06FEF7FEFC5014ED14C018E
:100CC0008201F32DFF773F2E15C0280122E0420E4E
:100CD000511CF801A080B18036FE03C0692D70E080
:100CE00002C06FEF7FEFC5012DD14C01F32DF068ED
:100CF0003F2E820133FC19C0822D90E088169906A0
:100D0000A0F4B60180E290E033D12A94F5CFF5014A
:100D100037FC859137FE81915F01B60190E028D1C3
:100D200021102A9421E0821A91088114910479F704
:100D3000E1C0843611F0893639F5F80137FE07C075
:100D400060817181828193810C5F1F4F08C0608137
:100D50007181072E000C880B990B0E5F1F4FF32D2E
:100D6000FF763F2E97FF09C090958095709561950D
:100D70007F4F8F4F9F4FF0683F2E2AE030E0A30156
:100D800033D1882E861844C0853731F4232D2F7E29
:100D9000B22E2AE030E025C0932D997FB92E8F36F0
:100DA000C1F018F4883579F0AEC0803719F0883773
:100DB00021F0A9C0E92FE061BE2EB4FE0DC0FB2DCD
:100DC000F460BF2E09C034FE0AC0292F2660B22E5F
:100DD00006C028E030E005C020E130E002C020E19C
:100DE00032E0F801B7FE07C0608171818281938192
:100DF0000C5F1F4F06C06081718180E090E00E5F44
:100E00001F4FA301F1D0882E8618FB2DFF773F2EB0
:100E100036FE0DC0232D2E7FA22E891458F434FEE9
:100E20000BC032FC09C0832D8E7EA82E05C0B82CC5
:100E3000A32C03C0B82C01C0B92CA4FE0FC0FE0126
:100E4000E80DF11D8081803321F49A2D997EA92E21
:100E500009C0A2FE06C0B394B39404C08A2D86785C
:100E600009F0B394A3FC10C0A0FE06C0B21480F435
:100E7000280C922C9B180DC0B21458F4B60180E2D5
:100E800090E076D0B394F8CFB21418F42B1802C0C7
:100E9000982C212CA4FE0FC0B60180E390E068D00E
:100EA000A2FE16C0A1FC03C088E790E002C088E55E
:100EB00090E0B6010CC08A2D867851F0A1FE02C0E8
:100EC0008BE201C080E2A7FC8DE2B60190E050D039
:100ED000891430F4B60180E390E04AD09A94F8CFB8
:100EE0008A94F301E80DF11D8081B60190E040D0B5
:100EF0008110F6CF222009F44ECEB60180E290E0B8
:100F000037D02A94F7CFF6018681978102C08FEF00
:100F10009FEF2B960FB6F894DEBF0FBECDBFDF91CB
:100F2000CF911F910F91FF90EF90DF90CF90BF90E6
:100F3000AF909F908F907F906F905F904F903F9079
:100F40002F900895FC010590615070400110D8F772
:100F5000809590958E0F9F1F0895FC016150704001
:100F600001900110D8F7809590958E0F9F1F0895DE
:100F70000F931F93CF93DF93FB01238121FD03C0C8
:100F80008FEF9FEF2CC022FF16C04681578124812E
:100F900035814217530744F4A081B1819D012F5F31
:100FA0003F4F318320838C93268137812F5F3F4FC2
:100FB0003783268314C08B01EC01FB010084F1858B
:100FC000E02D0995892BE1F6D80116968D919C911B
:100FD0001797019617969C938E931697CE01DF91E3
:100FE000CF911F910F910895FA01AA27283051F14E
:100FF000203181F1E8946F936E7F6E5F7F4F8F4F4A
:101000009F4FAF4FB1E03ED0B4E03CD0670F781FA8
:10101000891F9A1FA11D680F791F8A1F911DA11D8D
:101020006A0F711D811D911DA11D20D009F46894C6
:101030003F912AE0269F11243019305D3193DEF66E
:10104000CF010895462F4770405D4193B3E00FD024
:10105000C9F7F6CF462F4F70405D4A3318F0495D0F
:1010600031FD4052419302D0A9F7EACFB4E0A695F2
:101070009795879577956795BA95C9F70097610514
:10108000710508959B01AC010A2E0694579547956A
:1010900037952795BA95C9F7620F731F841F951F5F
:0810A000A01D0895F894FFCF94
:1010A8000A0004000300010020202020002D202039
:1010B80020002D2D2020002D2D2D2000657272007E
:1010C800436F64653A2025730056616C7565202569
:1010D80030336420202023256400556E6C6F636BC9
:1010E800656400424C4F434B454400666F723A209A
:1010F800253032643A253032643A253032640000B3
:00000001FF
